:100000000C945C000C9479000C9479000C947900A9
:100010000C9479000C9479000C9479000C9479007C
:100020000C9479000C9479000C9479000C9479006C
:100030000C9479000C9479000C9479000C9479005C
:100040000C94AA010C9479000C9479000C9479001A
:100050000C9479000C9479000C9479000C9479003C
:100060000C9479000C947900000000070002010054
:100070000003040600000000000000000102040864
:100080001020408001020408102001020408102002
:10009000040404040404040402020202020203032E
:1000A0000303030300000000250028002B000000CC
:1000B0000000240027002A0011241FBECFEFD8E043
:1000C000DEBFCDBF18E0A0E0B1E0EEE0F5E002C099
:1000D00005900D92AA34B107D9F718E0AAE4B8E068
:1000E00001C01D92A335B107E1F70E9478020C947C
:1000F00085020C940000CF93C3E061E08C2F0E9436
:100100003B01CF5FCA30C9F7CF9108955F926F92DC
:100110007F928F929F92AF92BF92CF92DF92EF9297
:10012000FF920F931F93CF93DF93562EC0E0D1E041
:100130006C01EE24D7FCE094FE2CA880B980F50178
:100140008081581699F02C96AB28B9F7DF91CF91A2
:100150001F910F91FF90EF90DF90CF90BF90AF90E5
:100160009F908F907F906F905F90089500E010E0D7
:10017000FE01E00FF11F8280938066246394712C4E
:1001800061E0F401E60DF71D80818A3209F060E03C
:1001900082E0860D0E947401FFEF6F1A7F0A88E0EB
:1001A0006816710469F7C701B6010E9417020E5F55
:1001B0001F4F0A301105E1F6C6CF1F93CF93DF938F
:1001C000EC0113E060E0812F0E9474011F5F1A3080
:1001D000C9F7BE01882777FD8095982FDF91CF91D1
:1001E0001F910C9417020F931F93CF93DF93EC0191
:1001F0008B01F80161918F01662339F0CE010E94D5
:100200008600CE010E94DD00F4CFDF91CF911F91D7
:100210000F9108950C947B0062E275E088EC90E009
:100220000C94F300833081F028F4813099F082300F
:10023000A1F008958630A9F08730B9F08430D1F468
:10024000809180008F7D03C0809180008F778093A4
:100250008000089584B58F7702C084B58F7D84BDFA
:1002600008958091B0008F7703C08091B0008F7D9A
:100270008093B0000895CF93DF9390E0FC01E458A1
:10028000FF4F2491FC01E057FF4F8491882349F1EF
:1002900090E0880F991FFC01E255FF4FA591B491A2
:1002A0008C559F4FFC01C591D4919FB7611108C037
:1002B000F8948C91209582238C93888182230AC0A4
:1002C000623051F4F8948C91322F309583238C93C3
:1002D0008881822B888304C0F8948C91822B8C9324
:1002E0009FBFDF91CF9108950F931F93CF93DF931B
:1002F0001F92CDB7DEB7282F30E0F901E859FF4F44
:100300008491F901E458FF4F1491F901E057FF4F30
:1003100004910023C9F0882321F069830E9412010F
:100320006981E02FF0E0EE0FFF1FEC55FF4FA59124
:10033000B4919FB7F8948C91611103C010958123FB
:1003400001C0812B8C939FBF0F90DF91CF911F91A4
:100350000F9108951F920F920FB60F9211242F93B1
:100360003F938F939F93AF93BF9380914B0890914E
:100370004C08A0914D08B0914E0830914A0823E0F6
:10038000230F2D3720F40196A11DB11D05C026E8CD
:10039000230F0296A11DB11D20934A0880934B089C
:1003A00090934C08A0934D08B0934E0880914F084D
:1003B00090915008A0915108B09152080196A11D4A
:1003C000B11D80934F0890935008A0935108B093AB
:1003D0005208BF91AF919F918F913F912F910F90B4
:1003E0000FBE0F901F9018953FB7F89480914F085B
:1003F00090915008A0915108B091520826B5A89B41
:1004000005C02F3F19F00196A11DB11D3FBF662702
:10041000782F892F9A2F620F711D811D911D42E047
:10042000660F771F881F991F4A95D1F70895CF92BD
:10043000DF92EF92FF92CF93DF936B017C010E94DA
:10044000F401EB01C114D104E104F10479F00E943C
:10045000F4016C1B7D0B683E7340A0F381E0C81A69
:10046000D108E108F108C851DC4FECCFDF91CF9102
:10047000FF90EF90DF90CF900895789484B58260DC
:1004800084BD84B5816084BD85B5826085BD85B538
:10049000816085BDEEE6F0E0808181608083E1E8E7
:1004A000F0E010828081826080838081816080831F
:1004B000E0E8F0E0808181608083E1EBF0E0808122
:1004C00084608083E0EBF0E0808181608083EAE7F4
:1004D000F0E080818460808380818260808380817D
:1004E000816080838081806880831092C10008953C
:1004F0000E943D020E940A01C0E0D0E00E940C016F
:0E0500002097E1F30E940000F9CFF894FFCF9E
:10050E002E0530053005300530053005390530052E
:10051E0030053B0530053005440546054F055805A9
:10052E004F0561056A056C0575057E058705900505
:10053E0099059B05A405AD05B605BF05C805300593
:10054E00CA05D30530053005DC057E057E05DE05C2
:10055E007E057E05E7053005BF05E905300530054A
:10056E00F2053005F405B605FD0530050606300525
:10057E00FD05B605F405300508067E057E057E05EB
:10058E007E057E050A060C0615067E051E06270646
:10059E003006DE053206A4053B06DE0544063005B0
:1005AE00460658054F063005580646065A063206C8
:1005BE00A40563066C066E06FD053B0677068006EF
:1005CE0089068B0694066105580515069D069F063D
:1005DE003B063B063B06A806B106B306BC06A405C1
:1005EE00A405E905C506C706D006D906CA05D30572
:1005FE00E2069B05A405A405A4059B05E406E606F4
:10060E00A405A405EF06F806010730059B059B051A
:10061E00300530050307300505079B05300530050D
:10062E000E0730057E059406B605FD0510079406E7
:10063E0094069406940694061207FD05B6059406D4
:10064E007E05300514072706C7063206D906E606CC
:10065E0016071807A4052107FD05DE052A072C0736
:10066E003507350735072C073E075805A405A405A1
:10067E00A4059B054007DE05FD05FD05FD05B60538
:10068E002C055805FD05FD05B605F4054207580570
:10069E00A405A405A405FD0544075805D906D906E9
:1006AE00C706C7064607DE05FD05FD053206180717
:1006BE00480758057E057E057E0558054A07300514
:1006CE00FD055805FD0530054C070C064F06FD05CA
:1006DE004E07C706570758057E059406B605FD0555
:1006EE00590758054F064F064F064F065B0758052C
:1006FE0027061E06270658055D0758051E067E05A9
:10070E00150658055F07DE05FD05FD05FD05DE0531
:10071E0061075805D906D906D906E6066307DE0530
:10072E00FD0532066E0665076E075805D906700779
:10073E00EF06630679076306A405A405A4058006E3
:10074E007B07C706C7065805C706C7067D074E07AF
:10075E004F064F064F064E077F0781070C064F06C2
:10076E000C0681078A0758050C068B060C065805E1
:10077E008C078E0794067E0594068E079707D30581
:10078E001E0699071E06D305A2075A063206A405B1
:10079E003B06A407AD07300530055805FD05FD05E0
:1007AE00AF0727061E067E0515060C06B107FD05CA
:1007BE00FD05580530053005B3074F064F064F06A9
:1007CE004F064F06B5070C06B707B707B7079907C9
:1007DE00C0075805C207CB07CB07D407DD07D407E0
:1007EE00CB07CB07CB070C06DF07D407CB07CB070E
:1007FE00C2075805E107D407B707B707B7078B0637
:10080E00E3077E052C07D906C7062706E5077E05F2
:10081E009406B707B707B306E70758057E051E0609
:10082E001E069907E9073005CB07EB074F06300583
:10083E00F4070C064F06CB07F6073005FF07300509
:10084E00580515060108CB070A083005FD055805A1
:10085E004F0630050C080E081E068B061E0699075D
:10086E0017080E087E051E061E0699071908D407DE
:10087E00CB07CB07CB07D4071B080E0894069406AC
:10088E0094067E051D087E05940694068B060E08BA
:10089E001F080E087E051E061E067E052108C207CD
:1008AE00B707B707B7070C0623081E064E07CB0778
:1008BE004F060C062508B3064F064F060C060E080B
:1008CE002708F4050C064F060C06F4052908B30696
:1008DE004F06E9054F06B3062B08CB070108150690
:1008EE000108CB072D082F08BF05BF05BF05B306AE
:1008FE003808CB078705B7073A08CB0743083005FA
:10090E007E059B05FD05300545083005300558056B
:10091E003005300547083005FD059B057E05300581
:10092E00000048454C4C4F20574F524C440020007D
:10093E002E2E2E2E2E2E2E2E0021002E2A2E2A2A3E
:10094E002A2A2A0024002E2E2A2E2E2A2E2E002E61
:10095E002E2A2E2A2E2A2E002E2A2A2A2A2A2A2AFF
:10096E00002E2E2E2A2E2E2A2E0025002E2E2A2E38
:10097E002E2E2A2A002E2E2E2A2E2E2A2A002E2EF9
:10098E002E2E2A2E2E2E002E2A2A2E2E2A2E2E00E5
:10099E002E2A2A2E2E2E2A2E0026002E2E2A2A2EE1
:1009AE002A2A2E002E2A2E2E2A2E2E2A002E2A2ECD
:1009BE002A2E2A2E2A002E2E2A2E2E2E2A2E002EB9
:1009CE002A2E2A2E2E2E2E0027002E2E2E2E2E2AA8
:1009DE002E2A002E2E2E2E2E2E2A2A002B002E2EC2
:1009EE002A2A2A2A2A2E002C002E2E2A2A2E2E2E93
:1009FE002E0028002E2E2E2A2A2A2E2E002E2A2EA9
:100A0E002E2E2E2E2A0029002D002F002E2E2A2EBD
:100A1E002E2E2E2E002E2E2E2A2E2E2E2E002E2E48
:100A2E002E2E2E2A2E2E002E2E2E2E2E2E2A2E003C
:100A3E0030002E2A2E2A2E2E2E2A002E2A2E2E2E32
:100A4E002A2E2A0031002E2A2E2E2E2E2A2E002E4F
:100A5E002A2E2E2E2E2E2E0032002E2A2A2E2E2E0C
:100A6E002E2A002E2A2E2E2E2A2A2E0033002E2E2D
:100A7E002A2E2E2E2E2A002E2A2E2E2A2E2A2A00FC
:100A8E002E2E2A2A2E2E2E2A0034002E2E2E2A2AE2
:100A9E002E2E2E002E2E2E2A2E2A2E2E0035002EF3
:100AAE002E2A2E2E2A2A2A002E2E2A2A2A2E2E2AA6
:100ABE000036002E2E2A2A2A2A2E2E002E2A2E2EDE
:100ACE002A2E2A2E0037002E2E2E2E2E2E2E2A00C5
:100ADE002E2A2A2A2E2E2E2A002E2E2E2E2A2E2E6A
:100AEE002A00380039002E2E2E2E2E2A2A2E002EC7
:100AFE002E2A2E2A2E2E2A002E2E2E2A2A2A2A2E52
:100B0E00003A003B002E2A2E2A2E2A2A2E003C00C6
:100B1E003D003E003F0040002E2E2A2A2E2E2A2E69
:100B2E00002E2A2A2A2A2E2E2A0041002E2A2A2A6E
:100B3E002A2A2A2E002E2E2E2A2E2E2E2A00420051
:100B4E004300450046004700480049004A002E2E4B
:100B5E002A2A2A2A2A2A004B004C004D004E004F0A
:100B6E0000500051002E2A2E2A2A2A2A2E00520028
:100B7E002E2E2E2A2A2E2E2A0053005400550056B1
:100B8E00002E2E2E2A2A2A2A2A00570058002E2AF4
:100B9E002A2E2E2E2A2A0059002E2A2A2A2A2E2EB4
:100BAE002E005A002E2A2E2E2E2E2A2A005B005C94
:100BBE00005D005F0061002E2A2E2A2E2A2E2E00A6
:100BCE0062002E2A2E2E2A2E2E2E002E2A2E2E2E6B
:100BDE002A2E2E002E2E2A2A2A2E2E2E0063006456
:100BEE0000650066006700680069002E2A2A2A2A1E
:100BFE002A2E2A006A002E2E2A2A2A2A2E2A006B34
:100C0E00002E2E2A2E2A2E2E2E006C006D002E2A3D
:100C1E002A2A2A2A2E2E006E006F00700071007292
:100C2E000073007400750076007700780079002E4E
:100C3E002E2E2E2A2A2E2E007A002E2A2E2E2A2AEA
:0A0C4E002E2E007B007C007D0000CC
:00000001FF
